:020000040800F2
:10000000082600209D01000847B80008C5A7000881
:1000100045B80008D568000809CA000800000000BB
:100020000000000000000000000000003FBF0008CA
:10003000D768000800000000E1B8000843C20008CB
:10004000B7010008B7010008B7010008B7010008B0
:10005000B7010008B7010008B7010008B7010008A0
:10006000B7010008B7010008B7010008B701000890
:10007000B7010008B7010008B7010008B701000880
:10008000B7010008B7010008B7010008B701000870
:10009000B7010008B7010008B7010008B701000860
:1000A000B7010008B7010008B7010008B701000850
:1000B000B7010008B7010008B7010008B701000840
:1000C000B7010008B7010008B7010008B701000830
:1000D000B7010008B7010008B7010008E1C900082E
:1000E000B7010008B7010008B7010008B701000810
:1000F000B7010008B7010008B7010008B701000800
:10010000B7010008B7010008B7010008B7010008EF
:1001100041C40008B7010008B7010008B701000892
:10012000B7010008B7010008B7010008B7010008CF
:10013000B7010008B7010008B7010008B7010008BF
:10014000B7010008B7010008B7010008B7010008AF
:10015000B7010008B7010008B7010008B70100089F
:10016000B7010008B7010008B7010008B70100088F
:10017000B7010008B7010008B7010008000000003F
:10018000B7010008B7010008DFF80CD006F05EF8F0
:1001900000480047E523010808260020064880475C
:1001A00006480047FEE7FEE7FEE7FEE7FEE7FEE75C
:1001B000FEE7FEE7FEE7FEE7E1C30008890100086D
:1001C000FE4880ED3A0A70472DE9F047DFF8EC93DE
:1001D00000262DED0A8B0446B0EE408AF0EE608AD0
:1001E000884635463746D9F8AC0005F0E9FD53ECB2
:1001F000182B05F057FE6FD3D9F8B00005F0E0FDDD
:1002000053EC182B05F066FEF5D3B4F90000B4F9F1
:100210000610401A05F0D4FD53EC182B05F042FEF1
:1002200000D20126B4F90E00B4F91410401A05F0FA
:10023000C7FD53EC182B05F035FE00D2761CB4F93F
:100240001C00B4F92210401A05F0BAFD53EC182B2B
:1002500005F028FE00D2761C9FEDD90B012E3BDC69
:1002600053EC102B51EC180B05F0B0FC89460646F8
:1002700049EC180BB4F90000B4F90610401A05F067
:100280009FFD53EC182B05F025FE00D20125B4F993
:100290000E00B4F9141049EC186B401A05F090FDEB
:1002A00053EC182B05F016FE00D26D1CB4F91C009F
:1002B000B4F9221049EC186B401A05F081FD53EC9B
:1002C000182B05F007FE00D26D1C002D05DD022065
:1002D00002F0EEB9BDE8F08765E000269FEDBACBED
:1002E00006EB460904EB8905B5F90A0005F068FD3F
:1002F00098ED048B53EC182B05F05AFC41EC190BCC
:10030000B5F9040005F05CFD53EC182B05F050FC2A
:1003100053EC192B05F05AFC41EC190BB5F9080008
:1003200005F04EFD98ED028B53EC182B05F040FCC8
:1003300041EC1A0BB5F9020005F042FD53EC182B05
:1003400005F036FC53EC1A2B05F040FC41EC1A0B7F
:10035000B5F9060005F034FD98ED008B53EC182B31
:1003600005F026FC41EC1B0B34F9290005F028FDB3
:1003700053EC182B05F01CFC53EC1B2B05F026FC52
:1003800053EC1A2B05F073FB53EC192B05F06FFBA4
:1003900053EC1C2B05F086FD00D27F1C761C032E2F
:1003A0009EDB022F01DA012092E7002090E78849C6
:1003B0000A684B68D00180EAD20080EA03104860E6
:1003C0008B68520380EAC30382EA5312520282EA24
:1003D000D0208B600860704710B52DED048BF0EED7
:1003E000408AFFF7E4FF00EE100AB8EE400ADFEDA6
:1003F000790A20EE200A9FED789A20EE090A0DF086
:10040000F7F9B0EE408AFFF7D2FF00EE100AB8EE1F
:10041000400A20EE090AB5EEC00AF1EE10FA01D149
:10042000B7EE000A10EE100A05F028FD41EC100BA3
:100430000DF092FA9FED691B51EC100B53EC112B50
:1004400005F0C4FB05F05EFD00EE100A0DF07DFD29
:1004500020EE280A20EE080ABDEC048B10BD2DE921
:10046000F04105462DED048BB0EE608AF0EE408A37
:100470000F4618EE100A05F001FD97ED301B53EC06
:10048000112B05F0A3FB41EC190B18EE900A05F0B7
:10049000F5FC95ED301B53EC112B05F097FB53EC5D
:1004A000192B05F0E4FA0024C5E9300118EE100A12
:1004B00005F0E4FC07EBC40898ED001B53EC112B8E
:1004C00005F084FB41EC190B18EE900A05F0D6FC00
:1004D00005EBC40696ED001B53EC112B05F076FBE3
:1004E00053EC192B05F0C3FAC6E9000118EE100A07
:1004F00005F0C4FC98ED241B53EC112B05F066FBB2
:1005000041EC190B18EE900A05F0B8FC96ED241B8F
:1005100053EC112B05F05AFB53EC192B05F0A7FAFD
:10052000641CC6E92401062CC0DB002418EE100A66
:1005300005F0A4FC41EC100B07EBC40090ED121B7E
:1005400051EC100B53EC112B05F040FB41EC190B57
:1005500018EE900A05F092FC05EBC40696ED121B0E
:1005600053EC112B05F032FB53EC192B05F07FFAFD
:10057000641CC6E91201092CD8DB002418EE100A0D
:1005800005F07CFC41EC100B07EBC40090ED0C1B5C
:1005900051EC100B53EC112B05F018FB41EC190B2F
:1005A00018EE900A05F06AFC05EBC40696ED0C1BEC
:1005B00053EC112B05F00AFB14E00000E8140020B6
:1005C00000000000000004400000000000000000E7
:1005D00000010020DB0FC9400000802F0000000058
:1005E000000000C053EC192B05F041FA641CC6E969
:1005F0000C01032CC2DBBDEC048BBDE8F0812DE9BE
:10060000F04F04462DED068B83B00D46086805F0CB
:10061000D7FB41EC1A0B686805F0D2FB41EC190BD3
:10062000A86805F0CDFB41EC180B94ED300B9FED65
:10063000FE1B51EC100B53EC112B05F018FAC4E91A
:10064000300194ED0C0B53EC1A2B51EC100B05F010
:100650000EFAC4E90C0194ED0E0B53EC192B51EC7E
:10066000100B05F004FAC4E90E0194ED100B53ECE5
:10067000182B51EC100B05F0FAF9C4E9100153ECFA
:100680001A2B51EC1A0B05F0A1FA029194ED001B04
:10069000064653EC112B05F0EAF9C4E9000153ECCE
:1006A000192B51EC1A0B05F091FA894649EC100B05
:1006B00094ED021B054653EC112B51EC100B05F089
:1006C000D6F9C4E9020153EC182B51EC1A0B05F0D2
:1006D0007DFA8B464BEC100B94ED041B804653ECDB
:1006E000112B51EC100B05F0C2F9C4E9040153ECD5
:1006F000192B51EC190B05F069FA019194ED061BC9
:10070000074653EC112B05F0B2F9C4E9060153EC8E
:10071000182B51EC190B05F059FA009194ED081BB8
:10072000824653EC112B05F0A2F9C4E9080153EC01
:10073000182B51EC180B05F049FA94ED0A1B53ECF9
:10074000112B05F094F9C4E90A01029953EC1A2B14
:1007500041EC106B51EC100B05F038FA94ED121BC4
:1007600053EC112B05F083F949EC105BC4E912013D
:1007700053EC192B51EC100B05F028FA94ED141BD7
:1007800053EC112B05F073F94BEC108BC4E91401F9
:1007900053EC182B51EC100B05F018FA94ED161BC6
:1007A00053EC112B05F063F949EC105BC4E9160119
:1007B00053EC1A2B51EC100B05F008FA94ED181BB2
:1007C00053EC112B05F053F9C4E91801019953ECCE
:1007D000192B41EC107B51EC100B05F0F7F994ED5F
:1007E0001A1B53EC112B05F042F9C4E91A010099C8
:1007F000554641EC10AB0E4653EC182B51EC100B48
:1008000005F0E4F994ED1C1B53EC112B05F02FF9C6
:10081000C4E91C0153EC1A2B51EC180B05F0D6F966
:1008200053EC1A2B05F0D2F994ED1E1B53EC112B4F
:1008300005F01DF946EC105BC4E91E0153EC192BC1
:1008400051EC100B05F0C2F994ED201B53EC112B69
:1008500005F00DF9C4E9200153EC182B51EC180BED
:1008600005F0B4F9894649EC100B074653EC182BF8
:1008700051EC100B05F0AAF994ED221B53EC112B4F
:1008800005F0F5F8C4E9220153EC1A2B51EC1A0BD0
:1008900005F09CF9884648EC100B054653EC1A2BE2
:1008A00051EC100B05F092F953EC1A2B05F08EF970
:1008B00094ED241B53EC112B05F0D9F8C4E9240165
:1008C00053EC192B51EC190B05F080F98A464AECD0
:1008D000100B064653EC192B51EC100B05F076F972
:1008E00053EC192B05F072F994ED261B53EC112BE8
:1008F00005F0BDF849EC107BC4E9260153EC182B38
:1009000051EC100B05F062F953EC182B05F05EF971
:1009100094ED281B53EC112B05F0A9F848EC105B63
:10092000C4E9280153EC192B51EC100B05F04EF9DA
:1009300053EC192B05F04AF994ED2A1B53EC112BBB
:1009400005F095F848EC105BC4E92A0153EC182B2C
:1009500051EC100B05F03AF953EC182B05F036F971
:1009600094ED2C1B53EC112B05F081F84AEC106B25
:10097000C4E92C0153EC182B51EC100B05F026F9AF
:1009800053EC182B05F022F994ED2E1B53EC112B90
:1009900005F06DF8C4E92E0103B0BDEC068B01F043
:1009A0008DBE2DE9F04F93462DED108B0D4604467C
:1009B00093B090ED0CEB53EC1E2B51EC1E0B05F09D
:1009C00005F994ED000B41EC190B8DED080B94ED3E
:1009D000308B53EC102B51EC180B05F0F7F853EC5F
:1009E000192B05F0E5F894ED0EDB41EC1F0B53ECF1
:1009F0001D2B51EC1D0B05F0E9F894ED060B41ECB5
:100A0000190B8DED060B53EC102B51EC180B05F068
:100A1000DDF853EC192B05F0CBF841EC100B8DED04
:100A2000040B94ED10CB03E0000000000000F03F49
:100A300053EC1C2B51EC1C0B05F0C8F894ED0A0B81
:100A400041EC190B8DED020B53EC102B51EC180BF4
:100A500005F0BCF853EC192B05F0AAF841EC110B8A
:100A600053EC1D2B8DED001B51EC1E0B05F0AEF869
:100A700094ED020B41EC190B53EC102B51EC180BBD
:100A800005F0A4F853EC192B05F092F841EC1B0B80
:100A900053EC1C2B51EC1E0B05F098F894ED040B55
:100AA00041EC190B53EC102B51EC180B05F08EF8A0
:100AB00053EC192B05F07CF841EC1A0B53EC1C2B72
:100AC00051EC1D0B05F082F894ED080B41EC190B6D
:100AD00053EC102B51EC180B05F078F853EC192B54
:100AE00005F066F89DED020B41EC190B53EC102B51
:100AF00051EC1E0B05F06AF841EC110B51EC180B90
:100B00008DED101B94ED160B53EC102B05F05EF8D9
:100B100041EC110B51EC1E0B8DED0E1B9DED060BE8
:100B200053EC102B05F052F841EC110B51EC180B63
:100B30008DED0C1B94ED140B53EC102B05F046F8C7
:100B400041EC110B51EC1E0B8DED0A1B9DED080BBA
:100B500053EC102B05F03AF894ED120B41EC1E0B00
:100B600053EC102B51EC180B05F030F853EC1E2B06
:100B700005F01EF89DED0A1B53EC112B04F077FFD6
:100B80009DED0C1B53EC112B05F012F89DED0E1B87
:100B900053EC112B04F06BFF9DED101B53EC112B4C
:100BA00005F006F89FEDFE1B53EC112B05F00EF837
:100BB0009DED020B41EC1E0B53EC102B51EC1D0B69
:100BC00005F004F841EC110B51EC180B8DED101BE6
:100BD00094ED1C0B53EC102B04F0F8FF41EC110BBF
:100BE00051EC1D0B8DED0E1B9DED060B53EC102BE8
:100BF00004F0ECFF41EC110B51EC180B8DED0C1BCC
:100C000094ED1A0B53EC102B04F0E0FF41EC110BA8
:100C100051EC1D0B8DED0A1B9DED080B53EC102BB9
:100C200004F0D4FF94ED180B41EC1D0B53EC102B8A
:100C300051EC180B04F0CAFF53EC1D2B04F0B8FF65
:100C40009DED0A1B53EC112B04F011FF9DED0C1BC5
:100C500053EC112B04F0ACFF9DED0E1B53EC112B4C
:100C600004F005FF9DED101B53EC112B04F0A0FFC9
:100C70009FEDCB1B53EC112B04F0A8FF9DED020B55
:100C800041EC1D0B53EC102B51EC1C0B04F09EFFA0
:100C900041EC110B51EC180B8DED021B94ED220B66
:100CA00053EC102B04F092FF41EC110B51EC1C0B98
:100CB0008DED0A1B9DED060B53EC102B04F086FF07
:100CC00041EC110B51EC180B8DED0C1B94ED200B2E
:100CD00053EC102B04F07AFF41EC110B51EC1C0B80
:100CE0008DED061B9DED080B53EC102B04F06EFFF1
:100CF00094ED1E0B41EC1C0B53EC102B51EC180B1C
:100D000004F064FF53EC1C2B04F052FF9DED061B16
:100D100053EC112B04F0ABFE9DED0C1B53EC112B8F
:100D200004F046FF9DED0A1B53EC112B04F09FFECF
:100D30009DED021B53EC112B04F03AFF9FED981B25
:100D400053EC112B04F042FF9DED040B41EC180B0A
:100D500053EC102B51EC1F0B04F038FF10919DED5C
:100D6000001B824653EC112B04F030FF41EC110BB9
:100D700053EC192B8DED0A1B51EC1F0B04F026FFD1
:100D800053EC192B04F022FF41EC110B53EC1A2BFE
:100D90008DED081B9DED040B51EC100B04F016FFBC
:100DA000814653EC1A2B119104F010FF41EC110B0A
:100DB0008DED061B9FED7C0B51EC1B0B53EC102BA8
:100DC00004F004FF53EC1A2B04F000FF53EC192B32
:100DD00004F0FCFE9DED001B41EC1C0B53EC1B2BA7
:100DE00051EC110B04F0F2FE074653EC1B2B029161
:100DF00004F0ECFE53EC1C2B04F0DAFE9DED061B18
:100E000053EC112B04F033FE9DED081B53EC112B1A
:100E100004F02DFE9DED0A1B53EC112B04F0C8FECF
:100E200041EC1C0B9FED620B53EC102B05F03AF8D4
:100E30007DD053EC192B51EC1B0B04F0C7FE53EC87
:100E4000182B04F0C3FE41EC110B53EC1D2B8DED60
:100E50000E1B029941EC107B51EC100B04F0B6FE16
:100E600041EC110B8DED0C1B9DED000B53EC102B89
:100E70009DED040B51EC100B04F0A8FE53EC1E2B5F
:100E800004F0A4FE41EC110B53EC192B8DED081B63
:100E900051EC190B04F09AFE53EC1E2B04F096FE55
:100EA00041EC110B53EC1D2B8DED0A1B51EC190B72
:100EB00004F08CFE41EC110B53EC182B8DED061B4E
:100EC0009DED040B51EC100B04F080FE9DED061B14
:100ED00053EC112B04F06CFE53EC1A2B04F076FE4D
:100EE0009DED0A1B53EC112B04F0C1FD9DED081B79
:100EF00053EC112B04F05CFE9DED0C1B53EC112BFD
:100F000004F0B5FD9DED0E1B53EC112B04F050FECB
:100F100041EC100B53EC1A2B8DED060B51EC1B0B17
:100F200004F054FE8846064648EC100B00E065E1EC
:100F300053EC182B51EC100B04F048FE41EC110B54
:100F400053EC1E2B8DED041B029941EC107B51ECF0
:100F5000100B04F03BFE41EC110B51EC1F0B8DED1F
:100F6000021B9DED000B53EC102B04F02FFE53ECF5
:100F70001D2B04F02BFE41EC110B53EC1A2B8DEDC5
:100F8000081B51EC1A0B04F021FE53EC1D2B04F04E
:100F90001DFE41EC110B53EC1E2B8DED001B0BE0E5
:100FA000000000000000E03F0000000000000040E2
:100FB000000000000000000051EC1A0B04F006FED7
:100FC00041EC1A0B53EC182B51EC1F0B04F0FEFDF7
:100FD00053EC1A2B04F0ECFD53EC192B04F0F6FD46
:100FE0009DED001B53EC112B04F041FD9DED081B02
:100FF00053EC112B04F0DCFD9DED021B53EC112B87
:1010000004F035FD9DED041B53EC112B04F0D0FDD5
:1010100041EC100B53EC1D2B8DED040B48EC106BC9
:1010200051EC100B04F0D2FD41EC110B53EC1E2BD4
:101030008DED001B119941EC109B51EC100B04F04D
:10104000C5FD41EC110B53EC182B8DED021B1099D3
:1010500041EC10AB51EC100B04F0B8FD41EC1A0B55
:1010600053EC1B2B51EC1B0B04F0B0FD53EC182B75
:1010700004F0ACFD41EC180B53EC1E2B51EC1B0B98
:1010800004F0A4FD41EC1B0B53EC1D2B51EC1F0B8A
:1010900004F09CFD53EC1B2B04F08AFD53EC192B40
:1010A00004F094FD53EC182B04F0E1FC53EC1A2BE4
:1010B00004F07EFD9DED021B53EC112B04F0D7FCD8
:1010C0009DED001B53EC112B04F072FD9DED060B02
:1010D00041EC190B53EC1C2B51EC100B04F0EBFD05
:1010E00041EC180B53EC1C2B85ED008B9DED040B94
:1010F00051EC100B04F0DFFD41EC1A0B53EC1C2BF0
:1011000085ED02AB51EC190B04F0D5FD41EC190B48
:1011100085ED049B94ED100B53EC102B04F056FD61
:1011200094ED0E0B41EC1B0B53EC102B51EC1A0BF6
:1011300004F04CFD94ED0C0B41EC1C0B53EC102B0C
:1011400051EC180B04F042FD53EC1C2B04F08FFC07
:1011500053EC1B2B04F08BFC1FED6D1B53EC112B80
:1011600004F034FD94ED061B94ED000B41EC1B0BD9
:1011700053EC112B51EC100B04F079FC94ED0A1B8D
:1011800053EC112B04F073FC53EC1B2B04F010FDFB
:1011900094ED301B53EC112B04F08DFD41EC1B0B37
:1011A00053EC192B51EC190B04F010FD41EC190B09
:1011B00053EC1A2B51EC1A0B04F008FD41EC1A0BFE
:1011C00053EC182B51EC180B04F000FD53EC1A2BC8
:1011D00004F04DFC53EC192B04F049FC53EC1B2B91
:1011E00004F045FC41EC100B0CF072FE8BED000B93
:1011F000012013B001F065BA01F060BA0020F8E7F1
:101200002DE9F04F0D462DED108B04468BB091ED7E
:1012100000AB53EC1A2B51EC1A0B04F0D7FC94EDF5
:101220000CCB53EC1C2B04F0D1FC53EC1C2B04F026
:10123000CDFC94ED30FB41EC180B53EC1A2B51EC28
:101240001F0B04F0C3FC8B464BEC100B074653EC12
:101250001A2B51EC100B04F0B9FC94ED00EB53EC9D
:101260001E2B04F0B3FC53EC182B04F0A1FC41EC52
:10127000190B53EC1E2B51EC1A0B04F0A7FC53EC8A
:101280001C2B04F0A3FC4BEC107B94ED121B41ECE7
:10129000180B53EC112B51EC100B04F097FC53EC92
:1012A000192B04F088FC53EC182B04F0E0FB41EC04
:1012B0001B0B1FEDC30B51EC1A0B53EC102B04F05E
:1012C00085FC894649EC100B95ED029B064653ECD4
:1012D000192B51EC100B04F079FC53EC1C2B04F08F
:1012E00075FC94ED0EDB53EC1D2B04F06FFC41EC10
:1012F000180B1FEDD30B51EC1F0B53EC102B04F00C
:1013000065FC824653EC1A2B069104F05FFC53EC0B
:10131000192B04F05BFC94ED021B53EC112B04F031
:1013200055FC53EC1B2B04F0A2FB53EC182B04F0E0
:101330003FFC41EC180B53EC1C2B51EC1A0B04F046
:1013400045FC049194ED06BB804653EC1B2B04F046
:101350003DFC41EC110B4BEC107B8DED001B94ED33
:10136000141B51EC100B53EC112B04F02FFC53EC1D
:10137000182B04F020FC9DED001B53EC112B04F006
:1013800076FB41EC110B49EC106B8DED001B95EDDC
:10139000048B51EC100B53EC182B04F017FC53EC9E
:1013A0001C2B04F013FC94ED10CB53EC1C2B04F01D
:1013B0000DFC41EC110B53EC1A2B8DED021B069921
:1013C00041EC10AB51EC100B04F000FC53EC182B6B
:1013D00004F0FCFB94ED041B53EC112B04F0F6FB22
:1013E0009DED001B53EC112B04F041FB9DED021B06
:1013F00053EC112B04F0DCFB41EC100B8DED000BDA
:10140000049994ED0AAB41EC108B53EC1A2B51EC80
:10141000100B04F0DBFB41EC110B4BEC107B8DED62
:10142000021B94ED161B51EC100B53EC112B04F026
:10143000CDFB9DED001B53EC112B04F0BCFB9DED8F
:10144000021B53EC112B04F012FB41EC110B8DED40
:10145000001B9FEDFE0B51EC1E0B53EC102B04F008
:10146000B5FB53EC1E2B04F0B1FB41EC110B8DEDE1
:10147000021B9FEDF60B51EC1F0B53EC102B04F0ED
:10148000A5FB059194ED241B814653EC112B04F030
:101490009DFB9DED001B53EC112B04F0E8FA9DED34
:1014A000021B53EC112B04F083FB41EC110B53ECAA
:1014B0001E2B8DED001B51EC190B04F087FB53EC38
:1014C0001D2B04F083FB41EC110B53EC192B8DED1C
:1014D000081B51EC1F0B04F079FB039194ED181BD2
:1014E000064653EC112B04F071FB9DED001B53ECF1
:1014F000112B04F060FB9DED081B53EC112B04F045
:10150000B6FA41EC110B8DED001B9FEDD20B51ECA7
:101510001E0B53EC102B04F059FB8B464BEC100BBD
:10152000054653EC1B2B51EC100B04F04FFB41EC28
:10153000110B8DED081B9FEDC70B51EC1F0B53ECEE
:10154000102B04F043FB049194ED2A1B804653ECCE
:10155000112B04F03BFB9DED001B53EC112B04F011
:1015600086FA9DED081B53EC112B04F021FB41EC96
:10157000110B53EC1E2B8DED001B51EC180B04F0DE
:1015800025FB53EC1C2B04F021FB41EC1E0B53EC10
:10159000182B51EC1F0B04F019FB029194ED1E1B4C
:1015A000074653EC112B04F011FB9DED001B53EC8F
:1015B000112B04F000FB53EC1E2B04F058FA4BECFB
:1015C000105B41EC1F0B53EC1A2B51EC100B04F089
:1015D000FDFA41EC1E0B049994ED2C1B41EC108B91
:1015E00053EC112B51EC100B04F0F0FA53EC1F2BC1
:1015F00004F03DFA53EC1E2B04F0DAFA41EC1F0B19
:1016000053EC192B51EC190B04F0E0FA53EC1D2BA1
:1016100004F0DCFA53EC1D2B04F0D8FA41EC1E0B5D
:10162000039953EC192B41EC106B51EC100B04F0A7
:10163000CDFA53EC1B2B04F0C9FA53EC1F2B04F02A
:1016400016FA53EC1E2B04F0B3FA41EC1F0B53ECCB
:101650001B2B51EC190B04F0B9FA53EC1D2B04F0C1
:10166000B5FA41EC1E0B039994ED1A1B41EC106B7B
:1016700053EC112B51EC100B04F0A8FA53EC1F2B78
:1016800004F099FA53EC1E2B04F0F1F941EC1F0B16
:101690009FED720B51EC190B53EC102B04F096FAE2
:1016A00053EC182B04F092FA53EC1D2B04F08EFA35
:1016B00053EC1C2B04F08AFA41EC1E0B069953ECF8
:1016C000192B41EC10AB51EC100B04F07FFA53ECEA
:1016D000182B04F07BFA94ED081B53EC112B04F04B
:1016E00075FA53EC1F2B04F0C2F953EC1E2B04F0D7
:1016F0005FFA41EC1E0B53EC1D2B51EC190B04F05F
:1017000065FA53EC1A2B04F061FA41EC190B0399BA
:1017100094ED1C1B41EC106B53EC112B51EC100B96
:1017200004F054FA53EC1E2B04F045FA53EC192B39
:1017300004F09DF941EC1D0B9FED44EB51EC1B0BAC
:1017400053EC1E2B04F042FA53EC1B2B04F03EFA30
:1017500041EC190B059994ED261B41EC109B53ECC1
:10176000112B51EC100B04F031FA53EC1D2B04F04B
:101770007EF953EC192B04F01BFA41EC1D0B53ECD2
:101780001B2B51EC180B04F021FA53EC1C2B04F02A
:101790001DFA41EC190B029994ED201B41EC107BD2
:1017A00053EC112B51EC100B04F010FA53EC1D2BE1
:1017B00004F001FA53EC192B04F059F99FED250BB5
:1017C00041EC190B53EC102B51EC1B0B04F0FEF900
:1017D00053EC1A2B04F0FAF941EC1B0B049994ED2D
:1017E0002E1B41EC108B53EC112B51EC100B04F021
:1017F000EDF953EC192B04F03AF953EC1B2B04F0E0
:10180000D7F941EC1B0B53EC182B51EC180B04F0DF
:10181000DDF953EC1C2B04F0D9F953EC1C2B04F02C
:10182000D5F941EC190B029953EC182B41EC107BC4
:1018300051EC100B04F0CAF953EC1A2B04F0C6F962
:1018400053EC1B2B04F013F90CE000000000000027
:101850000000D03F000000000000E03F000000005A
:101860000000004053EC192B04F0A2F941EC190BD5
:1018700053EC1A2B51EC180B04F0A8F953EC1C2B69
:1018800004F0A4F941EC180B029994ED221B41ECF1
:10189000107B53EC112B51EC100B04F097F953EC27
:1018A000192B04F088F953EC182B04F0E0F841EC04
:1018B000180B53EC1E2B51EC1A0B04F087F953EC68
:1018C0001A2B04F083F941EC190B059994ED281BB0
:1018D00041EC109B53EC112B51EC100B04F076F9FA
:1018E00053EC182B04F0C3F853EC192B04F060F9F7
:1018F00041EC100B0BB07DE430B50446B0F88C0021
:1019000089B000040690B4F88E000D4600040790DC
:10191000B4F8900088340004089002A80FF03CFE50
:10192000029906982B46401A06900399079806AA32
:10193000401A079004990898401A08902088616A14
:1019400080B20FF00FFD09B030BDF0B50D462DEDA2
:10195000048B87B06946FFF7CFFF9FEDFE8B002415
:101960006F469FEDFE9A03AE57F8240000EE100A72
:1019700006EB8400B8EEC00A20EE090A80ED000AEA
:1019800020EE000A10EE100A04F078FA53EC182B3F
:1019900004F06DF841EC180B641C032CE4DBB0EE92
:1019A000480AF0EE680A0CF093FAB0EE408AF0EEC6
:1019B000608A002456F8240004F060FA53EC182BD7
:1019C00004F079F904F09EFA00EE100A05EB8400A9
:1019D000641CD0ED000A032C30EE200A80ED000AD2
:1019E000E8DB686D401C68650FF06AFFE86707B0C8
:1019F000BDEC048BF0BD2DE9F04104460FF05EFE16
:101A000040BB0FF0E9FD042824D0D54920460E46FE
:101A1000FFF79BFFD34DD5E95C01814205DB3046E2
:101A200003F019FC0020C5F87401208E4FF0040665
:101A3000C00515D504F118000FF032FE8009B0F58D
:101A4000C87F0AD2D5F8B800002850DD401EC5F87E
:101A5000B8004AE00120BDE8F081C5F8B86044E074
:101A6000D4F8A010D5F81401081A01D4034600E0F8
:101A70004342BB4A4FF4A02C583A634505DDD4E9F4
:101A800029035365C2E913102FE00312D4F8A470A0
:101A9000D5F818015B43381A01D4864601E0C0F13D
:101AA000000EE64505DDD4F8A800D164C2E9147043
:101AB0001BE0001200FB0033D4F8A800D5F81C117D
:101AC000401A01D4014600E0414261450DDC00129C
:101AD00000FB0030B0F5403FB4DBA034C5F8B8607F
:101AE00094E80B004C3282E80B000020B3E70220A0
:101AF000B1E72DE9F04F9B4C2DED028B93B0D4F85C
:101B0000A81090ED000B04EBC10181ED000BD4F89F
:101B1000A810491CC4F8A81090ED020B04EBC101F9
:101B200081ED000BD4F8A810491CC4F8A81090ED62
:101B3000040B04EBC10080ED000BD4F8A800401C9E
:101B4000C4F8A800152802DB0020C4F8A800182259
:101B500084490CA803F0FBFE1822824904A803F074
:101B6000F6FE01260DF1300A0DF1100BA1460024FE
:101B700006EB460808EB040109EBC1050AEBC407B4
:101B800095ED001B97ED000B53EC112B51EC100B56
:101B900004F0A0F903D295ED000B87ED000B0BEBE1
:101BA000C40795ED001B97ED000B53EC112B51EC86
:101BB000100B04F077F903D295ED000B87ED000BC5
:101BC000641C032CD6DB761C072ED0DB9DED0C1B92
:101BD0009DED040B53EC112B51EC100B03F0E8FFBF
:101BE0009DED0E1B9DED060B41EC180B53EC112BDC
:101BF00051EC100B03F0DCFF53EC182B04F052F9FE
:101C00000BD39DED0E1B9DED060B53EC112B51ECF0
:101C1000100B03F0CDFF41EC180B9DED101B9DED5B
:101C2000080B53EC112B51EC100B03F0C1FF53ECDC
:101C3000182B04F037F90BD39DED101B9DED080B0D
:101C400053EC112B51EC100B03F0B2FF41EC180BCD
:101C500013B0B0EE480AF0EE680ABDEC028B00F05B
:101C60002DBD10B504462DED068B9CB000215520EE
:101C70000E91CDE90F1011909FED3B8B0AA80FF04C
:101C800057FC12A90AA80FF0FBFE16AA0EA912A86B
:101C90000FF019FF6A460AA916A80FF014FF019861
:101CA000B2EE059A00F5967001900298B0EE490ADE
:101CB00000F596700290039800F596700390FEF779
:101CC0008BFBBDEEC00A019910EE100AB0EE490A76
:101CD00008440190FEF780FBBDEEC00A029810EEAA
:101CE000101AB0EE490A08440290FEF775FBBDEEEB
:101CF000C00A039910EE100A08440390204601A977
:101D0000FEF77DFC94ED300B9FED191B51EC100B91
:101D100053EC112B04F0DEF85DD21AAA04A9204678
:101D2000FEF73FFE60B39DED080B9FED138B51EC6A
:101D3000100B53EC182B03F03BFF41EC100B53EC52
:101D4000102B03F043FF41EC190B9DED060B53ECF8
:101D5000182B16E000000000000000000000803793
:101D600008160020E81400200000000000408F400A
:101D700000000000000034400000000000C072407D
:101D800029E051EC100B03F013FF41EC100B53EC66
:101D9000102B03F01BFF9DED040B41EC1A0B53ECD1
:101DA000182B51EC100B03F003FF41EC100B53EC1C
:101DB000102B03F00BFF53EC1A2B03F058FE53ECDF
:101DC000192B03F054FE41EC100B0CF081F8B0EE2F
:101DD000408AF0EE608A9FEDFD0B51EC180B53EC3E
:101DE000102B03F068FF1CB041EC100BBDEC068B10
:101DF00010BD10B5E821F74803F0D0FDF648F749CB
:101E000020F8BC1F4A0CC280C18182828183428437
:101E1000F048E821E83003F0C1FDEF490020C1F8A7
:101E2000B40010BD2DE9F043EB4D04462DED108BB1
:101E3000C3B0006BC5F8A0012046FFF7DCFD002809
:101E40007ED1D5F8941105F1BC08012911D1B4F95E
:101E50008C003D90B4F98E003E90B4F990003F9014
:101E60003DA9DC48FEF7CBFB04F18C01404600F0B5
:101E7000A4FB1FED48DB9FEDDABB9FEDDBCB9FEDB5
:101E8000DCAB9FEDDDEBD34ED5F80801E83E002832
:101E900002DD401EC5F8080196ED300B53EC1D2BFA
:101EA00051EC100B04F016F87DD2CA49E822E8394B
:101EB000684603F04CFDC7483DA9E838FEF79FFB94
:101EC000C44940AA20390F46A1F1C800FEF769FDB8
:101ED00000287BD0BF483946E838FFF791F9B0EECB
:101EE000408AF0EE608A95ED400B51EC180B53ECF4
:101EF000102B03F05DFE96ED300B41EC190B53EC0B
:101F00001B2B51EC100B03F053FE41EC100B51EC6A
:101F1000190B53EC102B03F0CEFE41EC100B0BF021
:101F2000D7FF96ED30FBB0EE409AF0EE609A53EC9E
:101F30001B2B51EC1F0B03F03BFE53EC1F2B00E05F
:101F4000E9E003F043FE41EC1F0B53EC1C2B51EC7A
:101F5000180B03F03BFE53EC1F2B03F0ACFE41ECDF
:101F6000100B0BF0B5FFD5F8E80003F087FF95EDF7
:101F7000381B53EC112B03F029FE53EC192B03F003
:101F800091FF03D3D5F80801002826DD9148E82207
:101F90006946E83803F0DBFCD5F8E80003F06EFF93
:101FA00095ED381B01E010E010E053EC112B03F02D
:101FB0000DFE53EC192B03F075FF5CD24FF4FA7051
:101FC00001F070FE0A20C5F8080154E08148E822BB
:101FD0006946E83803F0BBFC4DE0D5F898010128CC
:101FE00049D1D5F8B400401CC5F8B400002010F069
:101FF000F9F896ED320B53EC1A2B51EC100B03F061
:10200000E5FD03F01CFF3A9096ED340B53EC1A2BD0
:1020100051EC100B03F0DAFD03F011FF3B9096ED4D
:10202000360B53EC1A2B51EC100B03F0CFFD03F0E1
:1020300006FF3C9003213AA810F06CF896ED300BA7
:1020400053EC1E2B51EC100B03F044FF11D29FED0B
:102050006C0A6049E839F0EE400A0846FEF7FFF9DD
:102060005C483946E838FFF7CBF8B0EE408AF0EE2E
:10207000608A85ED408B208E564FC0050CD5B4F894
:102080007400C00508D507F1E800FFF7EAFDB0EEDF
:10209000408AF0EE608A01E09FED4C8B97ED300BAB
:1020A0001FEDCD1B51EC100B53EC112B03F0FAFE7E
:1020B00031D3484940AAC83189464648FEF771FCE9
:1020C00000287CD0D4F8AC0003F07AFE41EC100B71
:1020D00053EC102B9FED4B0B51EC100B03F0EBFD71
:1020E00041EC1F0B4846FFF704FDB0EE409AF0EEBE
:1020F000609A53EC1F2B51EC190B03F0EBFE0BD243
:102100009FED420B51EC180B53EC102B03F0CAFE61
:1021100002D2FFF76EFEDBE153EC1F2B51EC190BE3
:1021200003F0C0FE51D251EC180B9FED3A9B53ECDB
:10213000192B03F0B7FEF5D297ED300B9FED371B4F
:1021400051EC100B53EC112B03F0C4FEEAD296EDC8
:10215000300B53EC1D2B51EC100B03F0A3FE7CD184
:1021600049461C48FFF74CF8B0EE408AF0EE608A12
:1021700085ED408B97ED309B53EC1B2B51EC190BED
:1021800003F016FD53EC192B03F020FD41EC190B65
:1021900053EC1C2B51EC180B03F018FD53EC192BCE
:1021A00003F089FD41EC100B0BF092FEB0EE408A7B
:1021B000F0EE608AD5F8E80003F060FE00E088E108
:1021C00095ED381B53EC112B2CE078E1000000005A
:1021D0000000084018130020E81400200080FFFFD2
:1021E000000000000000F03F000000000000004080
:1021F000000000000000F0400000000000409F4090
:102200006666E63E9A9999999999A941000000005D
:102210000000F83F00000000000010400000000037
:1022200000003E4003F0D2FC53EC182B03F03AFEC2
:10223000FFF46FAF9DED400B49464046FDF7C4FFEC
:1022400002283FF466AF00287ED1D5F89801012816
:10225000FAD100200FF0C6FF00E02FE097ED320B1F
:1022600053EC1A2B51EC100B03F0B0FC03F0E7FD1C
:102270003A9097ED340B53EC1A2B51EC100B03F002
:10228000A5FC03F0DCFD3B9097ED360B53EC1A2BCD
:1022900051EC100B03F09AFC03F0D1FD3C900321AC
:1022A0003AA80FF037FF01200FF060FF19200090CF
:1022B0000190029068460FF051FFF6E0D5F8B400A7
:1022C00003F07EFD97ED301B53EC112B03F0F3FC74
:1022D0009FEDE71B53EC112B03F0FCFDA8D34946FF
:1022E000E548FEF78DFF97ED30DBB0EE408AF0EE6B
:1022F000608A53EC1B2B51EC1D0B03F059FC53EC83
:102300001D2B03F063FC41EC1B0B53EC1C2B51EC1D
:10231000180B03F05BFC53EC1B2B03F0CCFC41ECE3
:10232000100B0BF0D5FDB0EE40BAF0EE60BAD5F868
:10233000E80003F0A3FD95ED381B53EC112B03F0DF
:1023400045FC53EC1B2B00E087E003F0ABFDC5D34D
:102350009DED400B49464046FDF736FF00287CD1F5
:1023600096ED361B97ED360B53EC112B51EC100B01
:1023700003F01EFC41EC100B53EC102B03F026FC79
:1023800096ED341B97ED340B41EC1B0B53EC112BEA
:1023900051EC100B03F00CFC41EC100B53EC102B28
:1023A00003F014FC96ED321B97ED320B41EC1C0B45
:1023B00053EC112B51EC100B03F0FAFB41EC100B1A
:1023C00053EC102B03F002FC53EC1C2B03F04FFBDF
:1023D00053EC1B2B03F04BFB41EC100B0BF078FD87
:1023E000B0EE40BAF0EE60BAD4F8AC0003F0E8FC0E
:1023F00053EC1B2B03F0EAFB9FEDA01B53EC112BBE
:1024000003F0E4FB41EC1B0B53EC192B03F062FDD2
:102410001AD39FED9C0B51EC1B0B53EC102B03F0CC
:1024200059FDBFF476AED5F8B40003F0C9FC97EDC2
:10243000301B53EC112B03F03EFC9FED941B53EC2F
:10244000112B03F02FFDECD2D5F8980101287FF471
:1024500060AE00200FF0C6FE00E039E085ED408B55
:1024600097ED320B53EC1A2B51EC100B03F0AEFB33
:1024700003F0E5FC3A9097ED340B53EC1A2B51EC3A
:10248000100B03F0A3FB03F0DAFC3B9097ED360B47
:1024900053EC1A2B51EC100B03F098FB03F0CFFC1C
:1024A0003C9003213AA80FF035FEF7EE000A9FEDAD
:1024B000790A7149A1F1E800FDF7D1FF29E697ED0E
:1024C000300B53EC1E2B51EC100B03F003FDF5D336
:1024D000002043B000F0FBB8BDE8F08370B56E4C4F
:1024E0000546D4F80C0110B9284600F091F8D5F84B
:1024F000B01044F6206081420ADAD4F81021114469
:102500008142C4F810114FF0000005DBC4F810013F
:102510002846BDE8704085E470BD04224FF4C871C0
:10252000AFF247000FF0B6BCAFF24F000FF010BF94
:10253000514810B5E821E83803F030FAFFF759FCAC
:102540004FF4D471544803F029FA534CB7EE000A03
:1025500004F5907084ED3A0A02F0C9FD0A20C4F82F
:102560007001B2EE000A84ED570A1E209FED4B0A5F
:10257000C4F87C0184ED620A9FED490A84ED610A8A
:102580009FED480A002084ED630A10BD10B5FFF7E7
:10259000CFFF002805D1AFF27D00BDE810400FF05D
:1025A00001BD10BD10B5AFF2CB000FF0D1FEAFF200
:1025B0009500BDE810400FF0F1BE30B50022C2EB2F
:1025C000C20331F9124030F91350AC420ADD02EB7C
:1025D00042040D8820F8245000EB84044D88658067
:1025E0008D88A58000EB430331F91240B3F9063022
:1025F0009C4209DA02EB420300EB83030C88DC8087
:102600004C881C818C885C81521C032AD7DB30BD2E
:1026100070B5214DD0F8AC200446EAB1D3170020A4
:10262000192103F042F945F8AC0F54F8AC2F002003
:10263000D317052103F039F9686022680020D31709
:10264000962103F032F903F0BBFBC5E90D01AC3D67
:102650000120C5F80C0170BD6FF00040C5F8AC005A
:102660009FED110BC5F8B00085ED380BF0E70000C9
:102670000AD7A3703D0AE73F1813002000000000AE
:102680000000103E000000000000044033333333EC
:102690003333C33F00000000E8140020CDCCCC3E13
:1026A0003333333F9A99193F0000C0FFFFFFDF41EA
:1026B000BDEC088BBDEC02CBFDF70CBE30BCBDE819
:1026C000C08FBDEC088BBDEC08CBFEF795BDBDEC13
:1026D000088BBDEC08CBFFF7FFBE000010B5FF492B
:1026E000C4074FF040434FF0804205D08B66CB6665
:1026F000C1E91C328A67CA67840709D5C1F800316D
:10270000C1F80431C1E94232C1F81021C1F81421E5
:10271000400709D5C1F89831C1F89C31C1E9683248
:10272000C1F8A821C1F8AC2110BD2DE9F14F00205E
:1027300082B0824681460298806F00287ED00022B7
:102740000020401C0428FCDB029800EBC203D3E904
:102750000010A1FB0167D3E9065400FB017701FBE0
:102760000077AB46AD1BCDE900670326A5FB06C885
:10277000A64664EB070404FB0684002705FB074517
:10278000DDE900671CEB06047D41A4FB016705FB46
:10279000017504FB0055D3E90C47341B65EB0705B5
:1027A000CDE900455D46A5FB05670324A6FB04585B
:1027B0000EFB0B770BFB0E7707FB04844FF0000C2E
:1027C00006FB0C44D3E91263761B63EB04034C183D
:1027D000A4FB017C40EB000505FB01C504FB005593
:1027E000A7FB014C05FB01C507FB0055A4FB017CC1
:1027F00005FB01C504FB0054F6196341DDE9004502
:10280000AD0045EA9475A400A4FB017C05FB01C161
:1028100004FB0014F01B73EB040103D500234042BA
:1028200063EB0101BAEB000479EB010301DA8246A4
:102830008946521C032A83DB504600E016E04946D5
:1028400003F0A8FA00EE900AA54890ED0E1A80EE6B
:10285000810A10EE100A03F0D1FAA04AD2F80C2235
:1028600003B0920000F046BC03F05FB8002003B054
:10287000014600F044BC2DE9F14F0020009A0146CA
:10288000926FE2B300240022521C042AFCDB009A5F
:1028900002EBC405AA46D5E90029A2FB023CD5E912
:1028A00006769E46FB1A0325A3FB057809FB02CC9E
:1028B00002FB09CB66EB0B0606FB05854FF0000C0F
:1028C00003FB0C5617EB0E03A3FB027C46EB0B0637
:1028D00006FB02C203FB0923DAE90C25BA1AAB4155
:1028E00003D50025524265EB0303851A71EB0305FE
:1028F00001DA10461946641C032CC4DB00E015E025
:1029000003F048FA00EE900A754890ED0E1A80EE3A
:10291000810A10EE100A03F071FA704AD2F80C2204
:1029200000F0F0BB02EB420202F0FFBF00200146C4
:1029300000F0EDBB2DE9FE43684D80460024D5F83C
:1029400010626F4605EBC4013246D1E9020102F084
:10295000DDFF05EB8401B1F884100904401847F845
:10296000240004F10104032CECDB5C4898210830BE
:1029700003F014F80120FFF7B1FE95F8E801019982
:10298000042807D1D5F81802B0F5201F02DD052074
:1029900085F8E801524C0098636AC11A01D40E46CA
:1029A00000E01E1A0198A26A801A01D4074601E0CD
:1029B000019FD71BBE4206DD002901D4084606E070
:1029C0000098181A03E0002801D50198101A029AFD
:1029D000E16A521A01D4134601E0029BCB1A8342EA
:1029E00005DB002A01D4104601E00298081AD8F845
:1029F00024100FF00CF8D5F81812814206DD0321DF
:102A000068460FF0F5FB02200FF044FC009860626E
:102A10000198A0620298E06200F07CBB304AC2E9F3
:102A2000020170472E4AC2E9060170472C4AC2E9EA
:102A300004017047294AD2F8E0310360D2E97402F8
:102A4000C1E900027047254AD2F8E0310360D2E9BB
:102A50007602C1E9000270472DE9FE478146002059
:102A6000EA468A6F22B901EB800339F91020DA6750
:102A700001EB800239F91030D46F1D1B4AF8205049
:102A8000136E9D4200DD1566D36E9D4200DAD56659
:102A90000123002422464FEAE578A3FB056704FBE7
:102AA000057403FB0844334602EB420601EBC606FD
:102AB00006EBC00CDCE90076FF186641CCE9007635
:102AC000521C042AE9DB401C0328CADB886F401C27
:102AD00088670120C1F8900000F01FBB901600200D
:102AE000F018002030B5002302EB830550F8234096
:102AF0005B1CEC66032BF7DBC2F88810916F79B191
:102B0000002102EB810450F82130E56F5B1B00D5FA
:102B10005B42256E9D4200DA2366491C0329F0DBE7
:102B2000906F401C90670120C2F8900030BD10B536
:102B300000210B4600EB8102491CD46ED46713665A
:102B40000329F7DBD0F8881040F8783FC0E9051377
:102B500010BDD0E92210081A70470146D1E91802C9
:102B6000824200DB1046896E814200DB08467047D6
:102B70002DE9F0478046501E012686408946C2F165
:102B80002007404602F0D1FE04460D464046494625
:102B90003A4602F0BBFE3A4602F0C7FEB04203DD01
:102BA000641C45F1000505E07142884202DA641EAA
:102BB00045F1FF3520462946BDE8F087F74900205A
:102BC000086248628862C862086448648864C864AD
:102BD000086348638863C863086548658865C86595
:102BE000704730B5EE4AD2F8483223B1D2E990545A
:102BF0002D1A8C4101DAC2E990015B1CC2F84832FF
:102C000030BD30B5E64AD2F8583223B1D2E99454F7
:102C10002D1A8C4101DAC2E994015B1CC2F85832CA
:102C200030BD30B5DE4AD2F828322BB1D2E9884522
:102C3000041B71EB050401DAC2E988015B1CC2F8D0
:102C4000283230BD30B5D64AD2F838322BB1D2E96D
:102C50008C45041B71EB050401DAC2E98C015B1C95
:102C6000C2F8383230BD2DE9F0470246CC48012584
:102C700008308046C36E016E046FC91A436E1B1B79
:102C80008B4200DB1946836ED8F87400181A88420C
:102C900000DB0146C14F6037F86B884204DA00243C
:102CA00000F010FA204687E7108E0124BC4EC005C4
:102CB0004FF000010ED5D6F880303068834209DB32
:102CC000B2F87420D20506D5D6F8B021824201DBD5
:102CD000052400E00C4674B3600719D5AF48C83826
:102CE0008146FFF722FD000D40EA01300915C6E9D3
:102CF0007601D7E904321B1A8A4102DA0025FFF770
:102D0000A1FF9821484602F049FE0420FFF7E6FCA7
:102D1000E0070ED04046FFF708FDC6E97C01D7E981
:102D200006340246181A8C4103DA00251046FFF7D4
:102D300078FF284640E7FFE702203DE71EB504463E
:102D400090F83000C0F38110032804D19449201D6D
:102D50000831FFF781FE94F87400C0F38110032856
:102D600005D18E4904F14800C839FFF775FED4F843
:102D7000B8008B4AC0F38113A0326946032B0FD0F1
:102D8000C0F3411003281AD1002004EB8003D3F8CC
:102D9000A0309B1341F82030401C0328F5DB09E0EC
:102DA000002004EB4003B3F98C3041F82030401C84
:102DB0000328F6DB6846D4F8C010FFF793FE1EBD6B
:102DC0002DE9F04705460020296BCA056AD501F0B8
:102DD0005001402900D1012095F8741001F05001F4
:102DE000402900D1012095F8B8106D4C01F0500138
:102DF000402900D030B100F065F90020C4F8E001AE
:102E000084F8E801654ED4F80812E86A6036814219
:102E100028D0C4F808020A28306B0CDA4000206081
:102E2000716B00EE100A491CC4F80C12B8EEC00A0F
:102E30000BF08BF805E02060706BC4F80C0296ED87
:102E40000E0A84ED850AD4F80C02C0F11000C4F813
:102E500010024FF48040C4F8180296F8341019207C
:102E60008840F0632846FFF769FF94F8E811DFF81F
:102E7000309105274FF0020809F1A009072911D266
:102E8000DFE801F0041127305E7E8500D4F8E00110
:102E9000411CC4F8E0110A2804DB00F013F90120FA
:102EA00084F8E80186E0D4F89800012810D128467B
:102EB000FFF7D9FE10B1012803D004E084F8E871CF
:102EC00001E084F8E8814846FFF731FEFFF776FE1F
:102ED00070E0032084F8E8012846FFF72BFD00F09E
:102EE000F1F867E02846FFF7BEFEE8B3012861D19C
:102EF000B5F8B8004FF00403C00515D54846FFF7F4
:102F00002CFE0146C017C4E97410D6E902C2BCEB1E
:102F10000101824102DA84F8E87108E04846FFF7CF
:102F200018FE316A884202D384F8E83124E0F4E9DB
:102F30007601FFF766FED4E90601FFF752FE39E09D
:102F4000B5F8B800C0050BD54846FFF706FE0146A8
:102F5000C017C4E97410D6E90232591A824108DB5D
:102F60002846FFF780FE00E003E010B1012803D0FF
:102F700020E084F8E8711DE02846FFF7DBFCD6E787
:102F8000062084F8E80101200FF084F90DE02846BE
:102F9000FFF769FE012805D038B10BE0901800203A
:102FA0009016002084F8E88104E000F08BF8484691
:102FB000FFF7BDFD0020FFE510B5002140100028FF
:102FC00002D001F10101F9DC4FF0010001F1010132
:102FD00000FA01F0434C00EE100AC4E90C01B8EE0F
:102FE000C00A0AF0B2FF84ED0E0A94F834101920DA
:102FF0008840E06310BD10B54FF418713A4802F0F4
:10300000CDFC4021374802F0C9FC0720FFF766FBE2
:10301000344840F2DC510022C0E906121421C0E914
:1030200002124FF41671C0E9041230492E4C0162AD
:103030000120C4F8E4011920FFF7BEFF0020C4F806
:10304000080210BD10B54FF41871274802F0A6FC15
:103050000720FFF743FB244801210022C0F8E411B8
:1030600080F8E811032101200FF00AF907226421FA
:10307000AFF2B320BDE810400EF00CBF10B5012038
:103080000FF008F9AFF2C720BDE810400FF060B9AB
:1030900010B5FFF7B0FF002805D1AFF25700BDE82B
:1030A00010400EF07FBF10BD10B5FFF7E7FFAFF285
:1030B0006B00BDE810400FF071B90B49D1E97C01FC
:1030C00070477047084810B59821083002F066FC38
:1030D0009821074802F062FCBDE810400520FFF788
:1030E000FDBA0000F0180020901600200008AF2F55
:1030F000C817002030BCBDE8C04FFFF7B5BB30BCDF
:10310000BDE8C08F18BCBDE8E04FFFF70BBC18BC92
:10311000BDE8E08F06BCBDE8F8830EBCBDE8F087D3
:10312000F0B516462DED028B85B01F460C460546C0
:103130003C22FE49A1F10C0002F009FCFB4950229F
:103140004C31A1F1100002F002FCF84996E80D00A4
:103150000C3901F13C0C8CE80D005CCC01F19800BD
:1031600080E85C009FEDF28AD1F82401401CC1F890
:103170002401062802DD0620C1F82401C0F106065C
:103180000C46A0351AE004EB06116A463846483171
:103190000EF099FC06EB460004EB80016A462846D7
:1031A0000EF08AF8F0EEC00AB0EEC81AF4EEC10ACA
:1031B000F1EE10FA01D2B0EE408A761C062EE2DB68
:1031C00005B0B0EE480ABDEC028BF0BD70B51446F8
:1031D0002DED048B0E46B0EE408A00259FEDD59A6A
:1031E000416BF0EE498A002904DBD0F8BC000328CB
:1031F00000D10125CD492422B431081F02F0A7FBDC
:10320000CA480C38002380ED388A00EB83015B1C30
:1032100091ED2F0A0A2B70EE288AF6DBB2EE040A33
:10322000C822C8EE800AC0ED390A9FEDC31A322EBB
:103230001DDB9FEDC20AC0F81C21B6F57A7FC8EEEF
:10324000001A00EE104AB8EEC00A61EE801A81EE54
:10325000810A2FDB9FEDBA0AC8EE001A00EE104A71
:10326000B8EEC00A61EE801A81EE810A22E041F2D6
:10327000883194FBF1F14942D0F81C3101EB810116
:10328000C918C0F81C1102D50021C0F81C119FED0F
:10329000AD0AC8EE001A00EE104AB8EEC00A61EEA0
:1032A000801A81EE810A29B9D0F82811012901D1AB
:1032B000B0EE490AD0F8201109B1B0EE480AA2498F
:1032C0008C4201D1B0EE480AB5EEC00AF1EE10FA18
:1032D00001D0C0ED3A0A90ED3A1A9C4B71EE600AAB
:1032E000F0EEE00A10EE901A994227DDD0ED2E0A9A
:1032F000F5EEC00AF1EE10FA20D1002D1ED0C0F874
:103300001C21204602F05CFD41EC190B18EE100A5E
:1033100002F0B4FD9FED8E1B53EC112B02F0CBFCA1
:1033200053EC192B02F052FC9FED8B1B53EC112B2D
:1033300002F0C1FC02F0E6FD00EE100ABDEC048BC9
:1033400070BD2DE9F04F04462DED048BA9B09FED23
:10335000799A4FF0000A754ECDF810A00C3ECDF8CA
:1033600014A0CDF818A0D6F82011022003297DD092
:1033700000209FED7B8A20AD06EB800191ED2A0AAB
:1033800005EB8001401CB8EEC00A042820EE080AB4
:1033900081ED000AF0DB0FA80EF0CAF824A80EF0A9
:1033A00021F9624B24AA9C330FA920462793FFF7EB
:1033B000B7FEF0EE408A04F118000EF071F98109B1
:1033C0006148D6F83021824200DB0246B0EE680A3E
:1033D0002046FFF7FBFED6ED3B0AB3460BA820EED6
:1033E000200A86ED2E0A0EF0A3F813A90BA80EF002
:1033F000E4FC4E480FAAF0300BA906460EF063FB22
:1034000031460BA80EF03CFB00210DF13C080DF1FC
:103410004C090DF1100E00221346104601EB410C31
:103420000CEB000759F8276008EB8007401C7F6809
:103430000328C6FB0723F3DB900F40EA83004EF816
:103440002100491C0329E6DBDBF820015E46002849
:103450006AD05046CDF818A0404200EE100AB8EEEF
:10346000C00A20EE080A0AF0C3F900E0A2E08DEDE0
:10347000000A8DED019A8DED029A0698404200EE09
:10348000100AB8EEC00A20EE080A0AF059FC8DEDC9
:10349000030A9DED060ADFED330AD6F83001B8EED7
:1034A000C00A41F2883190FBF1F080EE201A00EE64
:1034B000100AF8EEC01A81EE210AB0EE001AC0EE32
:1034C000011ABDEEE10A10EE101A490000EE101AC2
:1034D0000691B8EEC00A60EE200A00EE100AB8EEBF
:1034E000C00A20EE800ABDEEC00A8DED060AB8EED5
:1034F000C00A20EE080A0AF07BF98DED070A8DED6F
:10350000089A8DED099A9DED060AB8EEC00A20EEE4
:10351000080A0AF015FC8DED0A0A1CAA694620A8C3
:103520000EF029FB6A461FE04BE000003C1900202A
:10353000002474490000000000409C4500004843FE
:10354000000048420000C84340420F000E2DB23D2B
:103550000000000000007940000000000088B34037
:1035600000008030E102374707A91CA80EF003FBDA
:103570006F46DFED958AD4F8BC00002813DD0020EB
:1035800007EB800191ED000A05EB800181ED000A57
:1035900020EE280A06EB8001401C0428BDEEC00A7C
:1035A00081ED2A0AECDBD4F8BC00F6EE009A032881
:1035B0000CD108E0C6F8200129B0BDEC048B00F066
:1035C00007B9069848E700F045FEE0B396ED2A0AF1
:1035D000B8EEC00A20EE080A8DED1C0A96ED2B0A03
:1035E000B8EEC00A20EE080A8DED1D0A96ED2C0AF1
:1035F000B8EEC00A20EE080A8DED1E0A96ED2D0ADF
:10360000B8EEC00A20EE080A8DED1F0AD6F8200198
:103610000028D1D096ED2E0A20EE290A0AF0E8F80B
:1036200020EE280ABDEEC00A86ED2A0AC6F8ACA034
:10363000C6F8B0A096ED2E0A20EE290A0AF080FB0B
:1036400020EE280A00E004E0BDEEC00A86ED2D0A57
:103650002BE096ED2E0A20EE290A0AF0C9F88DED2E
:10366000070A8DED089A8DED099A96ED2E0A20EE47
:10367000290A0AF065FB8DED0A0A6A4607A920A807
:103680000EF079FA68460EF021FB002007EB80016E
:1036900091ED000A06EB8001401C20EE280A042868
:1036A000BDEEC00A81ED2A0AF0DBD4F8C0102798DD
:1036B0000EF062FDD6F820010028AAD0401E79E75E
:1036C00070B590F8B810414ACC064FF000034FF0A7
:1036D000030101D4C2E94813B0F82041E40509D43C
:1036E000048EE40503D5B0F87440E40502D4C2E9C1
:1036F00048131AE0D2F8341139B1D0E93013C91A9D
:103700004FF47A73B1FBF3F105E0D0F8B01044F652
:103710002064A14202DBC2F830110AE0D2F82C5139
:103720002944C2F82C11A14201DA002070BDC2E97F
:103730004B31FFF706FEF8E710B54FF49C712348B4
:1037400002F02CF9214C4FF080400021C4F8FC001D
:1037500044F8A80F1D48A8300EF00EFD4FF47A7003
:10376000B7EE000A606784ED110A10BD174880EDBE
:103770003B0A002070471549C1F828010020704716
:103780001249C1F834010020704704224FF4167129
:10379000AFF2D3000EF07EBBAFF2DB000EF0D8BD6F
:1037A00010B5FFF7C9FF09490020C1F82801C1F889
:1037B0003401AFF22900BDE810400EF0F3BBAFF2C8
:1037C00035000EF0EBBD00000000804E30190020E7
:1037D00030BCBDE8C08F00001FB50146102268460E
:1037E00002F0B5F8F7489DE80E0080E80E00F649B3
:1037F0009DF80C0081F8B001002004B010BD1FB589
:10380000F0490EC98DE80E00EF49102291F8B01171
:103810008DF80C10694602F09AF80020EDE72DE9CA
:10382000F04F91B000251821684602F0B7F8002447
:10383000182106A802F0B2F8E348A046C14690F865
:10384000C01101297ED1D0F8B8B1D0F8B4A10022BE
:10385000C2EBC20000EB4001DB4800EB810E9EF89A
:1038600050000F90002864D000215FE0DDE90007E0
:103870006D1C5EF821300E93181847EBE376CDE906
:1038800000060EEB8100EDB243690D93DDE9027C89
:103890004FEAE376DB1946EB0C06CDE90236836A84
:1038A000DDE9047CDE170C93DB1946EB0C06CDE951
:1038B0000436C06B0E9BDDE9067C83FB0063360C8F
:1038C00046EA0346F6194CEB2343CDE906630D9B0C
:1038D000DDE9087C83FB00634FEA164646EA0346AF
:1038E000F6194CEB2343CDE908630C9BDDE90A7C18
:1038F00083FB00634FEA164646EA0346F6194CEB93
:103900002343CDE90A6380FB00634FEA164646EA8B
:10391000034616EB080849EB23490444584501DAED
:10392000834602E0504500DD8246491C0F988842DC
:103930009CDC521C052A8BDBA348AAEB0B01D0F8B8
:10394000BC0100E056E0814254DBA5FB0823E017F0
:103950000026109006FB083005FB0900CDE90C207D
:1039600084FB0420110C41EA00410014CDE90E0152
:1039700006A800EBC601D1E90003A0FB05B203FBDA
:103980000522002100FB012C684600EBC601D1E9AD
:103990000001A0FB043701FB0471109A00FB021028
:1039A000190C41EA00490CAA4FEA204A92E8890022
:1039B0000F9983EA070880EA010252EA080212D04E
:1039C000421A63EB0703BBEB09006CEB0A0C4FEAEE
:1039D0000C4141EA1041000401F067FF7A4901EB14
:1039E0008601C1F8A401761C032EC1DB76480121B3
:1039F00080F8B01111B0002000F050B9F8B5724D48
:103A00000E460446D5E96D01091A052291FBF2F133
:103A1000301A90FBF1F0C0B28DF80000042801D9F3
:103A20002020F8BDC0EBC00000EB400005EB80019A
:103A300091F85000052816D0421C81F850209DF8BE
:103A40000010C1EBC10101EB410105EB810202EB6A
:103A50008001CE63236842F8203060684861A06826
:103A600088620020F8BD01F14003181F102219469A
:103A700001F06DFF9DF800001022C0EBC00000EBCC
:103A8000400005EB8000011D01F061FF9DF8000082
:103A90001022C0EBC00000EB400005EB800000F1FD
:103AA0001801143001F053FF9DF800001022C0EB04
:103AB000C00000EB400005EB800000F12C01283035
:103AC00001F045FF0420BAE730B585B0044603A9EC
:103AD00068460DF0BFFD04A80DF07EFE02282BD035
:103AE000D4F8E4000399401A374991F8B02112B391
:103AF00008B3D1F8A421009C80FB0232150445EAEA
:103B0000134222440092D1F8A821019C80FB02328A
:103B1000150445EA134222440192D1F8AC11029AED
:103B200080FB0110030443EA11401044029003217A
:103B300068460EF05DFB0CE0606B032809D10DF0C8
:103B40009BFD30B168460399FFF758FF08B9FFF7AE
:103B500066FE05B0002030BD10B54FF4E2711A4882
:103B600001F01CFF18481949C0F8B4114FF4AA011C
:103B7000C0F8B8114FF4A021C0F8BC11012180F8A1
:103B8000C011002010BD1049C1F8B80100207047D5
:103B90000D49C1F8B401002070470B49C1F8BC01C0
:103BA0000020704758B10849D1F8A4210260D1F82B
:103BB000A8214260D1F8AC11816000207047052037
:103BC000704700000C1C0020681A00200000D8FF7D
:103BD0002420F5E720B12D4981F8C0010020EFE74E
:103BE0002420EDE7294B93F8B1010028E8D0D3E970
:103BF0006D10401A052190FBF1F00020C0EBC001D0
:103C000001EB410103EB810191F8502022B1002129
:103C100000E0491C8A42FCDC401C0528EEDB002049
:103C2000CEE7082296211A480EF034B918480EF053
:103C30008FBB10B5FFF790FF4FF49A731022154910
:103C400015480EF079F920B9AFF229000EF0AAF963
:103C500008B1012010BD0D49012081F8B1010020FB
:103C600010BD10B5094C94F8B101002808D00848DF
:103C70000EF06EFBAFF255000EF090FB08B1012084
:103C800010BD002084F8B10110BD0000681A0020AA
:103C9000C93A0008FF370008D937000830BCBDE832
:103CA000C08F0000002803DDFE490122C1E9200287
:103CB0000020704710B5B821FA4801F06FFE9FED63
:103CC000FA0AF84880ED030A9FEDF80A80ED020A2F
:103CD0009FEDF70A4FF0804180ED000AB3EE0E0A27
:103CE00080ED010A41664FF4FA619FEDF20AC16767
:103CF00080ED270A002010BD70B5EA4C002594ED38
:103D0000001AB4EEC01AF1EE10FA17D394ED011AAE
:103D1000B4EEC01AF1EE10FA10DC2069012817D1B8
:103D200094ED030AB4EEE00AF1EE10FA06D394ED36
:103D3000020AB4EEE00AF1EE10FA09DD606F20B974
:103D4000D848A16D18300EF017FA0120C4E91D05FE
:103D5000D4E91E01884204DB606F012800D1E565CB
:103D6000656770BD10B504462DED028BB0EE408A3C
:103D70000DF0E8FBCB49002220B918EE100ACE4B1B
:103D8000984202DD0A614A6102E00869002808D110
:103D9000486920444861B0F5FA7F02DD0120C1E99D
:103DA0000402BDEC028B10BDF0B58DB00D4614467B
:103DB000064669460EF001F809AA314628460DF07C
:103DC00082FE294630460DF05BFE0021EC460DF1E7
:103DD000240E00231A46184601EB41073D180EEB4E
:103DE00080065CF825507668401CC5FB0632032827
:103DF000F4DB980F40EA820044F82100491C0329B3
:103E0000E7DB0DB0F0BDA7490020C1F88C0070477A
:103E100010B590ED000AD0ED010AB8EEC00AB8EE78
:103E2000E01AF8EEE00A20EE000A01EE200AD0EDDA
:103E3000020AB8EEE01AF8EEE00A01EE200A0AF0F3
:103E400084F8DFED9E0A20EE200A10BD002295497D
:103E5000012330B1012810D0C1F8983041F88C2FDF
:103E600031E081ED280A81ED290A9FED950A81ED67
:103E70002A0AE1E924328A607047D1ED280A91EDDF
:103E8000271A70EE600AF0EEE00AF4EEC10AF1EED5
:103E900010FA16D2D1F89400401CC1F89400D1ED6C
:103EA000290A312830EE800A81ED290AE4DD02205A
:103EB000DFED840AC1F8900080EE201A81ED2A1A05
:103EC000704741F8902F4A6070472DE9F0479846B7
:103ED0002DED088B8AB017468A4604469FED788AF6
:103EE0000025704E039504950595D6F888000028A6
:103EF0007DD00DF0CDFB10B103A80DF09DFBD6F8E1
:103F000080004FF00109002817DDC6F884900DF0FD
:103F1000BFFB48B103A80DF0C3FB8009B0F5C87F13
:103F200002D2D6F8800004E0D6F88000001BC6F864
:103F30008000002801DCC6F884500DF0C1FC002888
:103F400055D000209FED5D9A57F8201000EE101A12
:103F500058F82010401CB8EEC00A032860EE090A89
:103F600000EE101AB8EEC00A20EE800A00EE098AB0
:103F7000EADB3846FFF74CFFF0EE408A4FF07E5701
:103F800088EE280AF7EE00AA10EE100AB84201DD0A
:103F9000B0EE6A0A10EE100ADFF82C81BFEE00BA0C
:103FA000404501D9B0EE4B0A08F0E2FDD6F88C008E
:103FB000B0EE40AA98B196ED000AB4EEE80AF1EE30
:103FC00010FA0CDD96ED010AB4EEE80AF1EE10FAF3
:103FD00005D2B0EE4A0AD6F89000FFF737FF6846E0
:103FE0000DF0E4FB2F490C22AC31684600E0E2E022
:103FF00001F0F8FC18B9D6F8980001286BD12948CF
:104000009DE80E00AC3080E80E00009818B90198C9
:1040100008B90298F0B36846FFF7FAFEB0EE408A9E
:10402000B5EEC08AF1EE10FA55D0F2EE049A38EEF1
:10403000690A20EE000A09F088FF86ED010A38EED1
:10404000290A20EE000A09F080FF86ED000A9DEDA6
:10405000020AB8EEC00A60EE090AB0EE480A80EE25
:10406000808A18EE100AB84201DDB0EE6A8A18EEB6
:10407000100A404501D9B0EE4B8AB0EE480A08F06C
:1040800077FDD6ED270A30EE600A86ED020AB0EE23
:10409000480A00E024E008F06BFDD6ED270A30EE78
:1040A000200A14E02C1C00200000B4420000B4C21E
:1040B000000070427B142E3E00401C4600008037FA
:1040C0000000000000004842000080BF03E086EDD1
:1040D000030AC6F88C50DFF88481F16D21B32FE01C
:1040E0001FED0D0A86ED000AB3EE0E0A86ED010AF9
:1040F000D6F89800012808D01FED140A86ED020AB0
:104100001FED170A86ED030AE5E796ED2A0A96EDFC
:10411000271A70EE410A30EE010AC6ED020A86ED5A
:10412000030AC6F89850D6E70027C6F85C9006EB5D
:104130000710414618300DF039FA7F1C042FF6DBCA
:10414000464906AA0C310F465046FFF72DFE394668
:1041500050460DF095FC03A80DF0A2FA00EE100AEF
:10416000DFED3F0A2046B8EE400A20EE200AFFF7B6
:10417000F9FDF0EE4A0AB0EE680AFFF7BDFDD6E998
:104180001E01884201DA2044B067706F90B9306E2A
:1041900020443066B0F57A7F0CDD3049302230396A
:1041A000A1F11000356601F0D2FB2C4841461038D1
:1041B0000DF0FCF9706F0AB0BDEC088BBDE8F0871C
:1041C00070B588B0044604A80DF00CFAD4E93001AB
:1041D000451A68460DF0ACF9064604AB04F1A0029E
:1041E00069462846FFF771FE0DF0D8FF08B030464B
:1041F00070BD04224FF49671AFF23B000DF04ABE41
:10420000AFF243000EF0A4B810B5FFF753FD00283D
:104210000DD1124800215838C0F88C100121C0F887
:104220008810AFF23100BDE810400DF0BBBE10BDEC
:1042300010B5AFF273000EF08BF8AFF27B00BDE863
:1042400010400EF085B8054901205839C1F88C009E
:104250000020704701485838406F7047841C002088
:104260000000803CF0B51D462DED028B99B090ED1D
:10427000000AD0ED010A1746B8EEC00AB8EEE01AFF
:10428000F8EEE00A0E4620EE000A044601EE200A8F
:10429000D0ED020AB8EEE01AF8EEE00A01EE200ACC
:1042A00009F053FEF0EEC00A10EE900AB0F18D4F07
:1042B0007EDDD6ED000AB8EEE01ADFEDFE0A21EE53
:1042C000201A8DED041A96ED011AB8EEC11A21EEEE
:1042D000201A8DED051A96ED021AB8EEC11A21EEDC
:1042E000201A8DED061A96ED031AB8EEC11A61EE8A
:1042F000200ACDED070A9FEDF08A10AA8DED0C8AF9
:10430000D4ED000A0CA904A8F8EEE00A80EE801AA9
:104310008DED0D1AD4ED010AF8EEE00A80EE801A58
:104320008DED0E1AD4ED020AF8EEE00A80EE801A46
:104330008DED0F1A0DF01FFC14A904A80DF0ACFBB5
:104340006A4614A910A80DF016FC9DED021ADDEDC9
:10435000010ADA4921EE010A00EEA00A10EE100A65
:10436000884202DA9FEDD60A11E010EE100AD54914
:10437000884202DA9FEDD40A09E010EE100AD34910
:10438000884202DAB5EE000A01E09FEDD10A01EEA3
:10439000907AB8EEE12ADFEDCF2A8DED088AC2EEE1
:1043A000221A21EE800A21EE001A8DED091A00E092
:1043B00038E020EEC00A6A4604A98DED0A0A8DEDA8
:1043C0000B8A08A80DF0D7FB6A4604A910460DF029
:1043D00036FB68460DF038FCDDED000A9FEDBE0AA5
:1043E00060EE800AFDEEE00AC5ED000ADDED010A8F
:1043F00060EE800AFDEEE00AC5ED010ADDED020A7D
:1044000060EE800AFDEEE00AC5ED020ADDED030A6A
:1044100020EE800ABDEEC00A85ED030A19B0BDEC9E
:10442000028BF0BD96E80F0085E80F00F6E72DE956
:10443000F0410C462DED068B054690ED000AD0EDBF
:10444000010AB8EEC00AB8EEE01AF8EEE00A20EE73
:10445000000A01EE200AD0ED020AB8EEE01AF8EEEA
:10446000E00A01EE200A09F070FD10EE100A4FF08C
:104470007E5800264FF0804740453FDDD5ED020ACB
:10448000B7EE009AF8EEE00AC0EE808A39EE680ACC
:104490009FED89AAB5EEC00AF1EE10FA01DCB0EE8C
:1044A0004A0AF6EE009A20EE290A09F04EFDB0EE17
:1044B000408A38EE890AB5EEC00AF1EE10FA01DC46
:1044C000B0EE4A0A20EE290A09F03FFDF0EE408ADC
:1044D00095ED000AB8EEC00A60EE000A95ED010AFB
:1044E000B8EEC01AB8EEC00A41EE000AB0EE600A9B
:1044F00009F02BFD10EE100A404503DCC4E90076FC
:10450000A66025E0DFED740A28EEA01ABDEEC11A00
:1045100084ED001A95ED011AF8EEC11A81EE801AA9
:1045200021EE081A61EE200AFDEEE00AC4ED010A50
:10453000D5ED000AF8EEE00A80EE801A21EE080AB6
:10454000DFED660A20EE200ABDEEC00A84ED020A05
:10455000E660BDEC068BBDE8F08170B590ED000A19
:10456000D0ED010A0546B8EEC00AB8EEE01AF8EE42
:10457000E00A0C4620EE000A01EE200AD0ED020A05
:10458000B8EEE01AF8EEE00A01EE200AD0ED030AD8
:10459000B8EEE01AF8EEE00A01EE200AB5EEC00A25
:1045A000F1EE10FA07D84FF08040206000206060E4
:1045B000A060C86070BD09F0C8FCB7EE001AC1EE7B
:1045C000000A9FED450A20EE800AD5ED000AF8EEBC
:1045D000E00A60EE800AFDEEE00AC4ED000AD5EDC7
:1045E000010AF8EEE00A60EE800AFDEEE00AC4ED92
:1045F000010AD5ED020AF8EEE00A60EE800AFDEE4F
:10460000E00AC4ED020AD5ED030AF8EEE00A20EE56
:10461000800ABDEEC00A84ED030A70BD70B5044681
:1046200090F8300088B040067ED5A069002801DBF4
:10463000014600E041424FF480320026284D91426D
:104640000BDAE169002900DA4942914205DA216A70
:10465000002900DA4942914267DB002800DA404233
:104660004FF4C80188420BDCE069002800DA4042C0
:10467000884205DC206A002800DA4042884201DDD9
:10468000032000E00220A863696BA06A814242D047
:10469000686394ED0A0A9FED131AF8EEC00A80EEE3
:1046A000810ADFED110A20EE200A10EE100A01F057
:1046B000E5FB1BE0000080300000000017B7513917
:1046C000A69BC43B0AD7233C8FC2753DCDCC4C3E44
:1046D000CDCCCC3E0014CD470000804E000080CEF3
:1046E000E41C0020002474490000004E9FEDFA1BDA
:1046F00053EC112B01F06AFA9FEDF91B53EC112BCF
:1047000001F064FA9FEDF81B53EC112B01F0D3FA82
:1047100001F095FB28630496296BA0690DF077F9E9
:104720000590296BE06901E022E023E00DF06FF9CC
:104730000690296B206A0DF06AF907906A4604A971
:10474000EB480DF0C0F90098E94A8001009001980B
:1047500069468001019002988001029003988001CF
:10476000039010460DF059F9E1490846FFF7F5FEB0
:1047700008B070BDAE63FBE770B504462DED048B49
:104780008EB0D0F82001410676D5D94DD4F810115D
:10479000D84B2A68891AD4F82C215A438A4201DA64
:1047A000032100E00221A963800504F5887602D583
:1047B000CF493046B5E0002107A80CF04BFFCC49AB
:1047C0000C223C3107A801F00DF920B9D4F82801DA
:1047D000A96D88427ED020886B4680B207AA616AA4
:1047E0000CF0C0FD9DED000ADDED010AB8EEC00A37
:1047F000B8EEE01AF8EEE00A20EE000A01EE200A18
:10480000DDED020AB8EEE01AF8EEE00A01EE200A49
:1048100009F09BFBB0EE408A9FEDB70A68EE000AF4
:104820009FEDB61A80EE810ADFEDB50A20EE200A70
:10483000D4ED4A0AF8EEE00A60EE800A1FED571A3E
:1048400080EE810AF6EE000A20EE209AB0EE490AC8
:1048500008F0CEFFF0EE408AB0EE490A09F070FA97
:1048600018EE100A4FF08041884206DA0020C5E9B0
:1048700012102865686532E055E05FED690A68EE60
:10488000A00AFDEEE00AC5ED120A5FED6C0A20EE0B
:10489000200ADDED000AF8EEE00A60EE200A80EE64
:1048A000881AFDEEC10AC5ED130ADDED010AF8EE26
:1048B000E00A60EE200A80EE881AFDEEC10AC5ED1E
:1048C000140ADDED020AF8EEE00A20EE200AC0EE3E
:1048D000080A00E00DE0BDEEE00A85ED150A07AB21
:1048E00093E8070005F13C0383E80700D4F82801AA
:1048F000A8657F4903AA483130460DF0E4F87C48AA
:104900000AAA5C3003A904460DF0DDF821463046C2
:104910000DF0B6F803AA0AA975480DF0D4F8744949
:1049200003A8FFF71AFE0EB0BDEC048B70BD1FB5D7
:10493000044669466E480DF0A3F86D4A6946203278
:1049400020460DF0C0F86A491DCC103181E81D00E9
:104950001FBD2DE9F0470446654E90F8740006F13E
:104960005C0A06F12008012500F05001103692B0D3
:1049700004F5887904F15C07402906D094F82001F9
:1049800000F0500040280DD01DE031463846FFF7BA
:104990004EFDB4F82001C0050CD5514648460DF037
:1049A0006FF807E0514648460DF06AF8B4F8740015
:1049B000C00508D569464E480DF062F84246694682
:1049C00030460DF080F8B4F82001C005204602D52D
:1049D000FFF7D2FE01E0FFF721FE32464449404690
:1049E0000DF071F894F8740040066FD5208EB4F87D
:1049F00020110843C0056DD50FAA394630460DF089
:104A0000BDF9D4E9172080FB0001C2FB0201626EF0
:104A1000374FC2FB02014FF08042801A71F1020051
:104A200014DB04A80CF082FEDDE9042080FB000109
:104A3000C2FB0201069AC2FB02014FF08042801ABB
:104A400071F1020002DB0420B8630BE0B86B0428AC
:104A500008D041F28832022806D0032804D0012869
:104A600052D009E0002507E0E16E91FBF2F5012D3F
:104A700000DA0125032800D0AD0022480024454378
:104A800010980794800229460CF0C1FF08900F98F7
:104A90002946404280020CF0BAFFCDE909040BAA76
:104AA000314607A80DF00FF832460BA910460CF05E
:104AB000B4FF31460846FFF750FD69460C480CF03C
:104AC000DFFF4246694630460CF0FDFF12B0002081
:104AD000BDE8F08720E00000112D4454FB2109407F
:104AE00000000000000070400000000000806640F0
:104AF000E41C002071981C00DB0F49400000344387
:104B000000008037A69BC400E06E90FBF2F0012805
:104B100000DA01204500AFE7334619463846E26E19
:104B2000FFF7A0FBC9E770B50446008EC105D4F8B5
:104B3000200107D4B4F87410C90503D4C10501D409
:104B4000002070BDC0F30120032807D02046FFF7E6
:104B500000FF2348A16B0DF0EBFBF1E704F5887132
:104B60001F482EC980E82E00F3E71E480DF0F0BB69
:104B70001B4810B56C21103800F010FF18484FF09A
:104B800080411038016101600162C163C16500208C
:104B900010BD184810B5082213A1006800F022FFCC
:104BA00008B1322010BD1322BDE81040C8210D48C5
:104BB0000DF070B910B5FFF7DBFF002805D1AFF29B
:104BC0002D00BDE810400DF0EDB910BD10B5054841
:104BD0000DF0BEFBAFF24500BDE810400DF0DEBBAE
:104BE000F41C0020274B0008654D504C20352E3119
:104BF00000000000B000002000209FEDFE0AFE4AE9
:104C0000DFEDFE0A02EB8001401C81ED080AC0B214
:104C1000C1ED0B0A0328F5D37047F74A002002EBD9
:104C20008001D1ED080A91ED2D0AF4EEC00AF1EEF3
:104C300010FA01D281ED080AD1ED0B0AF4EEC00A98
:104C4000F1EE10FA01DD81ED0B0A401CC0B2032821
:104C5000E5D370473EB50B46B0F848100904009103
:104C6000B0F84A10009A09040191B0F84C100904F8
:104C70000291E1494C6E121B0092019A8C6E121B3C
:104C80000192029AC96E511A0291816EB0F84400E5
:104C90006A4680B20CF066FB3EBDF0B5D64F0024EC
:104CA0002546D7F894208DB02E46012A01D1C7F8A9
:104CB000946009A9FFF7CEFF05A80CF093FC0599B5
:104CC00009986022A0EBA130099006990A98A0EB00
:104CD000A1300A9007990B98A0EBA130C8490B901E
:104CE000081F00F034FE0DF1240CC5489CE80E00AE
:104CF000143080E80E0068460CF018FDC0496022B0
:104D00006C31081F00F023FEBD489DE80E00803086
:104D100080E80E0000210922D7F82C04401CC7F8B7
:104D20002C0401EB410007EB8000DDF800C0D0F857
:104D30004C33491C93FBF2F31C44D0F8503309293F
:104D400093FBF2F31D44D0F8543393FBF2F31E446B
:104D5000D0F8B83393FBF2F363440093D0F8BC333C
:104D6000DDF804C093FBF2F363440193D0F8C00371
:104D7000029B90FBF2F018440290CDDB002C00DA8D
:104D80006442002D00DA6D42002E00DA764200986F
:104D9000002800DA404200900198002800DA4042E2
:104DA00001900298002800DA404202900099002009
:104DB0008C4200DA012001998D4200DA401C0299F0
:104DC0008E4200DA401CD7F82C14092900DB401C65
:104DD00004280DD197F8240402280BD901468648EF
:104DE000D7F8282464300DF04FF901200DF046F972
:104DF0000DB0F0BD0DF034F9FAE72DE9F0417E4D2C
:104E000000272DED048B06463C4685F824749FED63
:104E10007D9B9FED7E8BC5F8287405EB8400D5ED56
:104E20000F0A90ED330AB4EEE00AF1EE10FA1EDB41
:104E300095ED140B53EC182B51EC100B00F0B8FE51
:104E400041EC100B08F07CFD53EC192B51EC100BCE
:104E500001F028F80BD295F824040121401C85F8B4
:104E60002404D5F82804A1400843C5F82804641C8C
:104E7000E4B2032CD1D395F82404B8B3002406EB94
:104E8000C40090ED000B51EC100B00F0D8FF05EBC7
:104E90008401641CE4B24866032CF0D3C5F82C747A
:104EA000A868042802DA95F82404A86095F8240478
:104EB00003281BD15749E868884217DC95ED140B8D
:104EC00053EC182B51EC100B00F072FE41EC100B60
:104ED00008F036FD53EC192B51EC100B00F0E2FFFB
:104EE00004D2A868032801D10420A8604A4928698F
:104EF00088421DDA4949E868884219DC95ED140BAF
:104F000053EC182B51EC100B00F052FE41EC100B3F
:104F100008F016FD9FED421B51EC100B53EC112BCA
:104F200000F0C0FF04D2A868042801D10520A860C1
:104F3000BDEC048BBDE8F0812DE9F0412E4C074615
:104F4000D4F8A404012802D000252846F2E7364907
:104F5000F7EE000AA1F1E800B7EE000A0646FBF7FB
:104F60007EFA254A3046503202F5AC71FBF719FD46
:104F70000500EAD06068401C606094ED140B51ECB1
:104F8000100B00F05CFFB96E0CF041FD00EE100A52
:104F9000DFED260AB8EEC00A20EE200A10EE100A55
:104FA00000F06CFFC4E9140194ED6A0B51EC100B96
:104FB00000F045FFA06594ED6C0B51EC100B00F078
:104FC0003EFFE06594ED6E0B51EC100B00F037FFE7
:104FD000206694ED680B9FED161B51EC100B53EC03
:104FE000112B00F077FFB0D231469FED130AF0EE9F
:104FF000400A23E000401CC6501D002000401C4613
:10500000A02000209A9999999999B93F0000000031
:105010000000F03FAE47E13D00007A43BC74933C92
:105020009CC420B07268913F181F00200000803798
:10503000000000000070A740CDCCCC3E0846FBF736
:105040000EFA82E7D0ED030A90ED040A0021012256
:10505000F4EEC00A0223F1EE10FA12DD90ED051A0B
:10506000F4EEC10AF1EE10FA0BDDB4EEC10A0164F0
:10507000F1EE10FA02DBC0E911237047C0E91132EA
:105080007047B4EEE00AF1EE10FA12DD90ED051A69
:10509000B4EEC10AF1EE10FA0BDDF4EEC10A0264BF
:1050A000F1EE10FA02DBC0E911137047C0E91131CB
:1050B0007047F4EEC00A0364F1EE10FA02DBC0E9B7
:1050C00011127047C0E911217047002319469FED66
:1050D000FE0AC36400EB8102491C82ED000A82EDE6
:1050E000090A0329F6DB0121C0E91D13704730B519
:1050F00004461420A0650A202066002584F870501C
:105100002046FFF7E2FF656530BD70B52DED048BDD
:1051100086B06946FFF79EFD9FEDEC8B1FED3D9A33
:1051200000246E4603AD56F8240000EE100A05EB8D
:105130008400B8EEC00A20EE090A80ED000A20EED5
:10514000000A10EE100A00F099FE53EC182B00F044
:105150008EFC41EC180B641C032CE4DBB0EE480A17
:10516000F0EE680A08F0B4FEDA4EB0EE408AF0EED7
:10517000608A002455F8240000F080FE53EC182BC0
:1051800000F099FD00F0BEFE00EE100A06EB840070
:1051900000F58060641CD0ED0C0A032C30EE200A70
:1051A00080ED0C0AE6DBD6F88404401CC6F88404C3
:1051B0000120C6F8AC0406B0BDEC048B70BD70B520
:1051C00005462DED028B86B004AA03A968460CF0B3
:1051D00045FB9FEDBE8B00246E4606EB840090EDF0
:1051E000000A20EE000A10EE100A00F047FE53EC11
:1051F000182B00F03CFC41EC180B641C032CECDB7E
:10520000B0EE480AF0EE680A08F062FEB0EE408A9E
:10521000F0EE608A002456F8240000F02FFE53ECD4
:10522000182B00F048FD00F06DFE00EE100A05EBB3
:105230008400641CD0ED000A032C30EE200A80EDBF
:10524000000AE8DB686D401C68650120E86706B06D
:10525000BDEC028B70BDF0B504460021F7EE001ADC
:105260009FED992A94ED140A04EB8100B8EEC01A60
:10527000D0ED000A80EE810AB5EEC00AF1EE10FA18
:1052800002DBB0EE401A01E0B1EE401AD0ED060AA2
:10529000F5EEC00AF1EE10FA01DAF1EE600A71EEF5
:1052A000600AC0ED0C0A80ED060A94ED0F1AD0EDED
:1052B000092A71EE610A00EEA20AC0EE010AC0EDF1
:1052C000090AF5EEC00AF1EE10FA01DAF1EE600A11
:1052D000C0ED030A491C80ED002A0329C2DB2046E9
:1052E000FFF7B0FEE06CB0F57A7F01DA401CE064B5
:1052F00094F8707000210526042303250122206CF8
:10530000062F09D2DFE807F00309102B5237626736
:10531000A267E16484F87020F0BDE06F0128FBD142
:10532000022084F870000DE004EB8000D4ED190A2F
:1053300090ED030AB4EEE00AF1EE10FA04DB84F813
:10534000703031E0A167F0BDD4ED1A0AB4EEE00A86
:10535000F1EE10FA22D934E06267A267F0BD04EBE7
:105360008000D4ED190A90ED030AB4EEE00AF1EEE4
:1053700010FAE4DAF0BD04EB8000D4ED1A0A90EDE7
:10538000030AB4EEE00AF1EE10FA07D9006B524EB0
:10539000B04206D9216EE06C8842EBDB84F8705095
:1053A000DAE784F87030E1646167CBE704EB8000F2
:1053B000D4ED1B0A90ED030AB4EEE00AF1EE10FA08
:1053C000D8D884F87060E164C6E710B5044600EEF2
:1053D000104AB8EEC00ADFED410A20EE200A9FED28
:1053E000401AC0EE010AB6EE000A20EE800A10EE66
:1053F000100A00F043FD41EC100B08F095F99FED09
:10540000391B51EC100B53EC112B00F0DFFB00F0BB
:1054100016FD01462F48C0E9204110BD2DE9F04F8F
:1054200000242DED028B91B005460494059406945A
:10543000C06E44F62061274E884206DBD6F8801005
:10544000884210D0FFF7C1FF0DE0D6F84823104482
:10545000C6F8480388427DDBE96E814201D0FFF740
:10546000B4FFC6F84843286BC6F8B0042846FFF7D7
:105470004CFE06F5906003C8814204DB1B48FFF731
:10548000EAFEC6F88444D6F8A804012802D12846CA
:10549000FFF703FCD6F8A40401285BD104A80CF0A4
:1054A00063F99DED040ADDED050A20EE000A00EE29
:1054B000A00ADDED060A00EEA00A08F046FD86ED22
:1054C000030ADFED0B0A15E00000000000000000F9
:1054D00000000000501D0020CDCC4CBD368D274073
:1054E00000247449000000000000D0418021002009
:1054F0000000804620EE200AC149A146ADF82040B8
:10550000BDEEC00A099110EE100AADF81C00ADF80E
:105510001E4007A8FDF7A0FA68460CF065F9316F48
:1055200000980CF074FA0446716F01980CF06FFA51
:105530000444B16F02980CF06AFA0444F16F0398C6
:105540000CF065FA04EB00089DE80F0000240DF153
:10555000340A00E0A2E006F170079FEDAA8A87E80E
:105560000F000DF1280B05EB4407A96E37F8480F23
:1055700000040CF04CFA00EE100A4AF8240006EB86
:105580008400B8EEC00A20EE080A80ED050A3888CB
:1055900001044BF82410641CE4B2032CE3D39848B4
:1055A0000AA9E8380446FBF72AF83168D6F8280338
:1055B000884273DB95ED390AD6ED360AB8EEC00A9B
:1055C000F5EEC00A20EE080AF1EE10FA05D070EEF2
:1055D000600AF0EEE00AC6ED370A86ED360AB068DA
:1055E000062818D2DFE800F0030303030D249FED23
:1055F000860AC82086ED0E0AB7EE000A86ED0F0A6D
:1056000008E09FED820A86ED0E0A9FED810A642074
:1056100086ED0F0A3064288EC005099812D4FDF774
:105620002AF900F0B7FB00EE100A5FED530A11E013
:105630009FED780A86ED0E0A9FED770A322086EDFF
:105640000F0AE7E7FDF771F800F0A4FB00EE100A7F
:10565000DFED720A982180EE201A86ED041A09986F
:1056600000F09CF9D6F88410414543DA96ED040A1F
:10567000B5EEC00AF1EE10FA3CDDD6ED0E0AB4EE3E
:10568000E00AF1EE10FA35D2316C7068884206DA21
:105690002846FFF751FC002859D00CE056E060493D
:1056A000D6F8B000884206DB2846FFF745FC002804
:1056B0004DD0C6F80490002006EB8001401C91ED0F
:1056C000050AC0B281ED2D0A0328F5D3FFF7A5FA2C
:1056D000002006EB8001401C91ED080AD1ED0B0A79
:1056E000C0B2032830EE600A81ED330AF1D34D4891
:1056F000FFF783FB002006EB8001401C91ED260A9A
:10570000D1ED050AC0B2032830EE600AB0EEC00A3F
:1057100081ED290AEFD396ED290AD6ED2A0A002059
:1057200030EE200AD6ED2B0A30EE200A86ED2C0A48
:1057300006EB8001401C91ED050AC0B281ED260AFE
:105740000328F5D3E821204600F028F9002011B005
:10575000BDEC028B00F072B810B54FF4976132487F
:1057600000F01CF9304C0A20206040072067FFF74A
:1057700043FA04F58660FFF7BAFC2068C4F8800499
:105780009FED2A0A04F580601E2180ED1B0A9FED23
:10579000280AC4F88C1480ED260A9FED260A80EDB5
:1057A000250A9FED250A80ED270A1920FDF704FC44
:1057B000002010BD012240F25231AFF29F300CF0B8
:1057C00069BBAFF2A7300CF0C3BD10B5FFF7C4FF43
:1057D000002805D1AFF22300BDE810400CF0E2BB79
:1057E00010BD10B5AFF2CB300CF0B2FDAFF23B0004
:1057F000BDE810400CF0D2BD0B4880687047000037
:1058000000200020000080370080BB440000964349
:105810009A99993F000070423333B33F0050C34719
:10582000CDCC4C3DF81E0020501D00200000004251
:10583000CDCCCC3ECDCC4C3F3333333F30BCBDE838
:10584000C08F2DE9F05F0546002092469B468846B2
:105850000646814640241BE02846414647462246EC
:1058600000F082FB53465A46C01A914110D31146AC
:105870001846224600F04AF82D1A67EB01084F46F9
:1058800022460120002100F041F817EB00094E41AB
:10589000201EA4F10104DFDC484631462A46434677
:1058A00000F000B830BCBDE8C09F2DE9F0410024F5
:1058B000061B254671F1000605DA01240027D0EB0E
:1058C000070067EB0101161E73F1000605DA0027D9
:1058D000D2EB0702012567EB0303FFF7B2FF864611
:1058E0000E4617469C46AC4204D00025D0EB050E70
:1058F00065EB010624B10020D2EB000760EB030C3E
:10590000704631463A466346BDE8F081202A04DB02
:10591000203A00FA02F1002070479140C2F12003C2
:1059200020FA03F3194390407047202A06DBCB1777
:10593000203A41FA02F043EAE07306E041FA02F34A
:10594000D040C2F12002914008431946704710B57B
:10595000431A934209D28318881803E010F8011DF6
:1059600003F8011D521EF9D210BD40EA01039B0746
:1059700003D009E008C9121F08C0042AFAD203E0C4
:1059800011F8013B00F8013B521EF9D210BDD2B212
:1059900001E000F8012B491EFBD270470022F6E718
:1059A00010B513460A4604461946FFF7F0FF204695
:1059B00010BD30B505462A460B4612F8010B13F808
:1059C000014B08B1A042F8D01CB1002802D06D1CD8
:1059D000F1E7284630BD421C10F8011B0029FBD11D
:1059E000801A704730B504460020034600E05B1C77
:1059F000934203D2E05CCD5C401BF8D030BD2DE972
:105A0000F04791460F4680460446002614F8015B95
:105A10002DB100F0B9FA0068405DC007F6D12B2D1A
:105A200002D02D2D18D0641E4A463946204600F07B
:105A3000BDFA27B13968A14201D1C7F800807105CC
:105A40004FF002040BD54042002803DD07F08CF82C
:105A50000460A007BDE8F08746F48066E4E700280C
:105A6000F8DA07F081F804606FF00040F2E72DE902
:105A7000FE4F804681EA0300C00F0C46009021F0E3
:105A8000004123F00045B8EB0200A94105D2404691
:105A9000214690461C460B46024623F00040104328
:105AA00047D0270DC7F30A00C3F30A510290401AEA
:105AB000019040286BDAC3F3130040F4801B009878
:105AC000924620B10023D2EB030A63EB0B0B019843
:105AD0005946C0F140025046FFF718FF06460D46F2
